{
  "_format": "hh-sol-artifact-1",
  "contractName": "MyERC721",
  "sourceName": "contracts/MyERC721.sol",
  "abi": [
    {
      "inputs": [
        {
          "internalType": "string",
          "name": "_name",
          "type": "string"
        },
        {
          "internalType": "string",
          "name": "_symbol",
          "type": "string"
        }
      ],
      "stateMutability": "nonpayable",
      "type": "constructor"
    },
    {
      "anonymous": false,
      "inputs": [
        {
          "indexed": true,
          "internalType": "address",
          "name": "owner",
          "type": "address"
        },
        {
          "indexed": true,
          "internalType": "address",
          "name": "approved",
          "type": "address"
        },
        {
          "indexed": true,
          "internalType": "uint256",
          "name": "tokenId",
          "type": "uint256"
        }
      ],
      "name": "Approval",
      "type": "event"
    },
    {
      "anonymous": false,
      "inputs": [
        {
          "indexed": true,
          "internalType": "address",
          "name": "owner",
          "type": "address"
        },
        {
          "indexed": true,
          "internalType": "address",
          "name": "operator",
          "type": "address"
        },
        {
          "indexed": false,
          "internalType": "bool",
          "name": "approved",
          "type": "bool"
        }
      ],
      "name": "ApprovalForAll",
      "type": "event"
    },
    {
      "anonymous": false,
      "inputs": [
        {
          "indexed": false,
          "internalType": "uint256",
          "name": "_fromTokenId",
          "type": "uint256"
        },
        {
          "indexed": false,
          "internalType": "uint256",
          "name": "_toTokenId",
          "type": "uint256"
        }
      ],
      "name": "BatchMetadataUpdate",
      "type": "event"
    },
    {
      "anonymous": false,
      "inputs": [
        {
          "indexed": false,
          "internalType": "uint256",
          "name": "_tokenId",
          "type": "uint256"
        }
      ],
      "name": "MetadataUpdate",
      "type": "event"
    },
    {
      "anonymous": false,
      "inputs": [
        {
          "indexed": true,
          "internalType": "bytes32",
          "name": "role",
          "type": "bytes32"
        },
        {
          "indexed": true,
          "internalType": "bytes32",
          "name": "previousAdminRole",
          "type": "bytes32"
        },
        {
          "indexed": true,
          "internalType": "bytes32",
          "name": "newAdminRole",
          "type": "bytes32"
        }
      ],
      "name": "RoleAdminChanged",
      "type": "event"
    },
    {
      "anonymous": false,
      "inputs": [
        {
          "indexed": true,
          "internalType": "bytes32",
          "name": "role",
          "type": "bytes32"
        },
        {
          "indexed": true,
          "internalType": "address",
          "name": "account",
          "type": "address"
        },
        {
          "indexed": true,
          "internalType": "address",
          "name": "sender",
          "type": "address"
        }
      ],
      "name": "RoleGranted",
      "type": "event"
    },
    {
      "anonymous": false,
      "inputs": [
        {
          "indexed": true,
          "internalType": "bytes32",
          "name": "role",
          "type": "bytes32"
        },
        {
          "indexed": true,
          "internalType": "address",
          "name": "account",
          "type": "address"
        },
        {
          "indexed": true,
          "internalType": "address",
          "name": "sender",
          "type": "address"
        }
      ],
      "name": "RoleRevoked",
      "type": "event"
    },
    {
      "anonymous": false,
      "inputs": [
        {
          "indexed": true,
          "internalType": "address",
          "name": "from",
          "type": "address"
        },
        {
          "indexed": true,
          "internalType": "address",
          "name": "to",
          "type": "address"
        },
        {
          "indexed": true,
          "internalType": "uint256",
          "name": "tokenId",
          "type": "uint256"
        }
      ],
      "name": "Transfer",
      "type": "event"
    },
    {
      "inputs": [],
      "name": "DEFAULT_ADMIN_ROLE",
      "outputs": [
        {
          "internalType": "bytes32",
          "name": "",
          "type": "bytes32"
        }
      ],
      "stateMutability": "view",
      "type": "function"
    },
    {
      "inputs": [],
      "name": "MINTER_ROLE",
      "outputs": [
        {
          "internalType": "bytes32",
          "name": "",
          "type": "bytes32"
        }
      ],
      "stateMutability": "view",
      "type": "function"
    },
    {
      "inputs": [
        {
          "internalType": "address",
          "name": "to",
          "type": "address"
        },
        {
          "internalType": "uint256",
          "name": "tokenId",
          "type": "uint256"
        }
      ],
      "name": "approve",
      "outputs": [],
      "stateMutability": "nonpayable",
      "type": "function"
    },
    {
      "inputs": [
        {
          "internalType": "address",
          "name": "owner",
          "type": "address"
        }
      ],
      "name": "balanceOf",
      "outputs": [
        {
          "internalType": "uint256",
          "name": "",
          "type": "uint256"
        }
      ],
      "stateMutability": "view",
      "type": "function"
    },
    {
      "inputs": [
        {
          "internalType": "uint256",
          "name": "tokenId",
          "type": "uint256"
        }
      ],
      "name": "getApproved",
      "outputs": [
        {
          "internalType": "address",
          "name": "",
          "type": "address"
        }
      ],
      "stateMutability": "view",
      "type": "function"
    },
    {
      "inputs": [
        {
          "internalType": "bytes32",
          "name": "role",
          "type": "bytes32"
        }
      ],
      "name": "getRoleAdmin",
      "outputs": [
        {
          "internalType": "bytes32",
          "name": "",
          "type": "bytes32"
        }
      ],
      "stateMutability": "view",
      "type": "function"
    },
    {
      "inputs": [
        {
          "internalType": "bytes32",
          "name": "role",
          "type": "bytes32"
        },
        {
          "internalType": "address",
          "name": "account",
          "type": "address"
        }
      ],
      "name": "grantRole",
      "outputs": [],
      "stateMutability": "nonpayable",
      "type": "function"
    },
    {
      "inputs": [
        {
          "internalType": "bytes32",
          "name": "role",
          "type": "bytes32"
        },
        {
          "internalType": "address",
          "name": "account",
          "type": "address"
        }
      ],
      "name": "hasRole",
      "outputs": [
        {
          "internalType": "bool",
          "name": "",
          "type": "bool"
        }
      ],
      "stateMutability": "view",
      "type": "function"
    },
    {
      "inputs": [
        {
          "internalType": "address",
          "name": "owner",
          "type": "address"
        },
        {
          "internalType": "address",
          "name": "operator",
          "type": "address"
        }
      ],
      "name": "isApprovedForAll",
      "outputs": [
        {
          "internalType": "bool",
          "name": "",
          "type": "bool"
        }
      ],
      "stateMutability": "view",
      "type": "function"
    },
    {
      "inputs": [],
      "name": "name",
      "outputs": [
        {
          "internalType": "string",
          "name": "",
          "type": "string"
        }
      ],
      "stateMutability": "view",
      "type": "function"
    },
    {
      "inputs": [
        {
          "internalType": "uint256",
          "name": "tokenId",
          "type": "uint256"
        }
      ],
      "name": "ownerOf",
      "outputs": [
        {
          "internalType": "address",
          "name": "",
          "type": "address"
        }
      ],
      "stateMutability": "view",
      "type": "function"
    },
    {
      "inputs": [
        {
          "internalType": "bytes32",
          "name": "role",
          "type": "bytes32"
        },
        {
          "internalType": "address",
          "name": "account",
          "type": "address"
        }
      ],
      "name": "renounceRole",
      "outputs": [],
      "stateMutability": "nonpayable",
      "type": "function"
    },
    {
      "inputs": [
        {
          "internalType": "bytes32",
          "name": "role",
          "type": "bytes32"
        },
        {
          "internalType": "address",
          "name": "account",
          "type": "address"
        }
      ],
      "name": "revokeRole",
      "outputs": [],
      "stateMutability": "nonpayable",
      "type": "function"
    },
    {
      "inputs": [
        {
          "internalType": "address",
          "name": "to",
          "type": "address"
        },
        {
          "internalType": "string",
          "name": "_tokenURI",
          "type": "string"
        }
      ],
      "name": "safeMint",
      "outputs": [
        {
          "internalType": "uint256",
          "name": "",
          "type": "uint256"
        }
      ],
      "stateMutability": "nonpayable",
      "type": "function"
    },
    {
      "inputs": [
        {
          "internalType": "address",
          "name": "from",
          "type": "address"
        },
        {
          "internalType": "address",
          "name": "to",
          "type": "address"
        },
        {
          "internalType": "uint256",
          "name": "tokenId",
          "type": "uint256"
        }
      ],
      "name": "safeTransferFrom",
      "outputs": [],
      "stateMutability": "nonpayable",
      "type": "function"
    },
    {
      "inputs": [
        {
          "internalType": "address",
          "name": "from",
          "type": "address"
        },
        {
          "internalType": "address",
          "name": "to",
          "type": "address"
        },
        {
          "internalType": "uint256",
          "name": "tokenId",
          "type": "uint256"
        },
        {
          "internalType": "bytes",
          "name": "data",
          "type": "bytes"
        }
      ],
      "name": "safeTransferFrom",
      "outputs": [],
      "stateMutability": "nonpayable",
      "type": "function"
    },
    {
      "inputs": [
        {
          "internalType": "address",
          "name": "operator",
          "type": "address"
        },
        {
          "internalType": "bool",
          "name": "approved",
          "type": "bool"
        }
      ],
      "name": "setApprovalForAll",
      "outputs": [],
      "stateMutability": "nonpayable",
      "type": "function"
    },
    {
      "inputs": [
        {
          "internalType": "bytes4",
          "name": "interfaceId",
          "type": "bytes4"
        }
      ],
      "name": "supportsInterface",
      "outputs": [
        {
          "internalType": "bool",
          "name": "",
          "type": "bool"
        }
      ],
      "stateMutability": "view",
      "type": "function"
    },
    {
      "inputs": [],
      "name": "symbol",
      "outputs": [
        {
          "internalType": "string",
          "name": "",
          "type": "string"
        }
      ],
      "stateMutability": "view",
      "type": "function"
    },
    {
      "inputs": [
        {
          "internalType": "uint256",
          "name": "index",
          "type": "uint256"
        }
      ],
      "name": "tokenByIndex",
      "outputs": [
        {
          "internalType": "uint256",
          "name": "",
          "type": "uint256"
        }
      ],
      "stateMutability": "view",
      "type": "function"
    },
    {
      "inputs": [
        {
          "internalType": "address",
          "name": "owner",
          "type": "address"
        },
        {
          "internalType": "uint256",
          "name": "index",
          "type": "uint256"
        }
      ],
      "name": "tokenOfOwnerByIndex",
      "outputs": [
        {
          "internalType": "uint256",
          "name": "",
          "type": "uint256"
        }
      ],
      "stateMutability": "view",
      "type": "function"
    },
    {
      "inputs": [
        {
          "internalType": "uint256",
          "name": "tokenId",
          "type": "uint256"
        }
      ],
      "name": "tokenURI",
      "outputs": [
        {
          "internalType": "string",
          "name": "",
          "type": "string"
        }
      ],
      "stateMutability": "view",
      "type": "function"
    },
    {
      "inputs": [],
      "name": "totalSupply",
      "outputs": [
        {
          "internalType": "uint256",
          "name": "",
          "type": "uint256"
        }
      ],
      "stateMutability": "view",
      "type": "function"
    },
    {
      "inputs": [
        {
          "internalType": "address",
          "name": "from",
          "type": "address"
        },
        {
          "internalType": "address",
          "name": "to",
          "type": "address"
        },
        {
          "internalType": "uint256",
          "name": "tokenId",
          "type": "uint256"
        }
      ],
      "name": "transferFrom",
      "outputs": [],
      "stateMutability": "nonpayable",
      "type": "function"
    }
  ],
  "bytecode": "0x60806040523480156200001157600080fd5b506040516200258a3803806200258a833981016040819052620000349162000214565b818160006200004483826200030d565b5060016200005382826200030d565b505050620000917f9f2df0fed2c77648de5860a4cc508cd0818c85b8b8a1ab4ceeef8d981c8956a66200008b620000a660201b60201c565b620000aa565b6200009e600033620000aa565b5050620003d9565b3390565b6000828152600b602090815260408083206001600160a01b038516845290915290205460ff166200014b576000828152600b602090815260408083206001600160a01b03851684529091529020805460ff191660011790556200010a3390565b6001600160a01b0316816001600160a01b0316837f2f8788117e7eff1d82e926ec794901d17c78024a50270940304540a733656f0d60405160405180910390a45b5050565b634e487b7160e01b600052604160045260246000fd5b600082601f8301126200017757600080fd5b81516001600160401b03808211156200019457620001946200014f565b604051601f8301601f19908116603f01168101908282118183101715620001bf57620001bf6200014f565b81604052838152602092508683858801011115620001dc57600080fd5b600091505b83821015620002005785820183015181830184015290820190620001e1565b600093810190920192909252949350505050565b600080604083850312156200022857600080fd5b82516001600160401b03808211156200024057600080fd5b6200024e8683870162000165565b935060208501519150808211156200026557600080fd5b50620002748582860162000165565b9150509250929050565b600181811c908216806200029357607f821691505b602082108103620002b457634e487b7160e01b600052602260045260246000fd5b50919050565b601f8211156200030857600081815260208120601f850160051c81016020861015620002e35750805b601f850160051c820191505b818110156200030457828155600101620002ef565b5050505b505050565b81516001600160401b038111156200032957620003296200014f565b62000341816200033a84546200027e565b84620002ba565b602080601f831160018114620003795760008415620003605750858301515b600019600386901b1c1916600185901b17855562000304565b600085815260208120601f198616915b82811015620003aa5788860151825594840194600190910190840162000389565b5085821015620003c95787850151600019600388901b60f8161c191681555b5050505050600190811b01905550565b6121a180620003e96000396000f3fe608060405234801561001057600080fd5b50600436106101585760003560e01c80636352211e116100c3578063b88d4fde1161007c578063b88d4fde146102dd578063c87b56dd146102f0578063d204c45e14610303578063d539139314610316578063d547741f1461033d578063e985e9c51461035057600080fd5b80636352211e1461028157806370a082311461029457806391d14854146102a757806395d89b41146102ba578063a217fddf146102c2578063a22cb465146102ca57600080fd5b8063248a9ca311610115578063248a9ca3146101ff5780632f2ff15d146102225780632f745c591461023557806336568abe1461024857806342842e0e1461025b5780634f6ccce71461026e57600080fd5b806301ffc9a71461015d57806306fdde0314610185578063081812fc1461019a578063095ea7b3146101c557806318160ddd146101da57806323b872dd146101ec575b600080fd5b61017061016b366004611a79565b61038c565b60405190151581526020015b60405180910390f35b61018d61039d565b60405161017c9190611ae6565b6101ad6101a8366004611af9565b61042f565b6040516001600160a01b03909116815260200161017c565b6101d86101d3366004611b2e565b610456565b005b6009545b60405190815260200161017c565b6101d86101fa366004611b58565b610570565b6101de61020d366004611af9565b6000908152600b602052604090206001015490565b6101d8610230366004611b94565b6105a1565b6101de610243366004611b2e565b6105c6565b6101d8610256366004611b94565b61065c565b6101d8610269366004611b58565b6106da565b6101de61027c366004611af9565b6106f5565b6101ad61028f366004611af9565b610788565b6101de6102a2366004611bc0565b6107e8565b6101706102b5366004611b94565b61086e565b61018d610899565b6101de600081565b6101d86102d8366004611bdb565b6108a8565b6101d86102eb366004611ca3565b6108b3565b61018d6102fe366004611af9565b6108eb565b6101de610311366004611d1f565b6108f6565b6101de7f9f2df0fed2c77648de5860a4cc508cd0818c85b8b8a1ab4ceeef8d981c8956a681565b6101d861034b366004611b94565b610958565b61017061035e366004611d81565b6001600160a01b03918216600090815260056020908152604080832093909416825291909152205460ff1690565b60006103978261097d565b92915050565b6060600080546103ac90611dab565b80601f01602080910402602001604051908101604052809291908181526020018280546103d890611dab565b80156104255780601f106103fa57610100808354040283529160200191610425565b820191906000526020600020905b81548152906001019060200180831161040857829003601f168201915b5050505050905090565b600061043a826109a2565b506000908152600460205260409020546001600160a01b031690565b600061046182610788565b9050806001600160a01b0316836001600160a01b0316036104d35760405162461bcd60e51b815260206004820152602160248201527f4552433732313a20617070726f76616c20746f2063757272656e74206f776e656044820152603960f91b60648201526084015b60405180910390fd5b336001600160a01b03821614806104ef57506104ef813361035e565b6105615760405162461bcd60e51b815260206004820152603d60248201527f4552433732313a20617070726f76652063616c6c6572206973206e6f7420746f60448201527f6b656e206f776e6572206f7220617070726f76656420666f7220616c6c00000060648201526084016104ca565b61056b8383610a04565b505050565b61057a3382610a72565b6105965760405162461bcd60e51b81526004016104ca90611de5565b61056b838383610af0565b6000828152600b60205260409020600101546105bc81610c61565b61056b8383610c6b565b60006105d1836107e8565b82106106335760405162461bcd60e51b815260206004820152602b60248201527f455243373231456e756d657261626c653a206f776e657220696e646578206f7560448201526a74206f6620626f756e647360a81b60648201526084016104ca565b506001600160a01b03919091166000908152600760209081526040808320938352929052205490565b6001600160a01b03811633146106cc5760405162461bcd60e51b815260206004820152602f60248201527f416363657373436f6e74726f6c3a2063616e206f6e6c792072656e6f756e636560448201526e103937b632b9903337b91039b2b63360891b60648201526084016104ca565b6106d68282610cf1565b5050565b61056b838383604051806020016040528060008152506108b3565b600061070060095490565b82106107635760405162461bcd60e51b815260206004820152602c60248201527f455243373231456e756d657261626c653a20676c6f62616c20696e646578206f60448201526b7574206f6620626f756e647360a01b60648201526084016104ca565b6009828154811061077657610776611e32565b90600052602060002001549050919050565b6000818152600260205260408120546001600160a01b0316806103975760405162461bcd60e51b8152602060048201526018602482015277115490cdcc8c4e881a5b9d985b1a59081d1bdad95b88125160421b60448201526064016104ca565b60006001600160a01b0382166108525760405162461bcd60e51b815260206004820152602960248201527f4552433732313a2061646472657373207a65726f206973206e6f7420612076616044820152683634b21037bbb732b960b91b60648201526084016104ca565b506001600160a01b031660009081526003602052604090205490565b6000918252600b602090815260408084206001600160a01b0393909316845291905290205460ff1690565b6060600180546103ac90611dab565b6106d6338383610d58565b6108bd3383610a72565b6108d95760405162461bcd60e51b81526004016104ca90611de5565b6108e584848484610e26565b50505050565b606061039782610e59565b60007f9f2df0fed2c77648de5860a4cc508cd0818c85b8b8a1ab4ceeef8d981c8956a661092281610c61565b600c80549060019060006109368385611e5e565b9091555061094690508582610f61565b6109508185610f7b565b949350505050565b6000828152600b602052604090206001015461097381610c61565b61056b8383610cf1565b60006001600160e01b03198216637965db0b60e01b1480610397575061039782611046565b6000818152600260205260409020546001600160a01b0316610a015760405162461bcd60e51b8152602060048201526018602482015277115490cdcc8c4e881a5b9d985b1a59081d1bdad95b88125160421b60448201526064016104ca565b50565b600081815260046020526040902080546001600160a01b0319166001600160a01b0384169081179091558190610a3982610788565b6001600160a01b03167f8c5be1e5ebec7d5bd14f71427d1e84f3dd0314c0f7b2291e5b200ac8c7c3b92560405160405180910390a45050565b600080610a7e83610788565b9050806001600160a01b0316846001600160a01b03161480610ac557506001600160a01b0380821660009081526005602090815260408083209388168352929052205460ff165b806109505750836001600160a01b0316610ade8461042f565b6001600160a01b031614949350505050565b826001600160a01b0316610b0382610788565b6001600160a01b031614610b295760405162461bcd60e51b81526004016104ca90611e71565b6001600160a01b038216610b8b5760405162461bcd60e51b8152602060048201526024808201527f4552433732313a207472616e7366657220746f20746865207a65726f206164646044820152637265737360e01b60648201526084016104ca565b610b98838383600161106b565b826001600160a01b0316610bab82610788565b6001600160a01b031614610bd15760405162461bcd60e51b81526004016104ca90611e71565b600081815260046020908152604080832080546001600160a01b03199081169091556001600160a01b0387811680865260038552838620805460001901905590871680865283862080546001019055868652600290945282852080549092168417909155905184937fddf252ad1be2c89b69c2b068fc378daa952ba7f163c4a11628f55a4df523b3ef91a4505050565b610a018133611077565b610c75828261086e565b6106d6576000828152600b602090815260408083206001600160a01b03851684529091529020805460ff19166001179055610cad3390565b6001600160a01b0316816001600160a01b0316837f2f8788117e7eff1d82e926ec794901d17c78024a50270940304540a733656f0d60405160405180910390a45050565b610cfb828261086e565b156106d6576000828152600b602090815260408083206001600160a01b0385168085529252808320805460ff1916905551339285917ff6391f5c32d9c69d2a47ea670b442974b53935d1edc7fd64eb21e047a839171b9190a45050565b816001600160a01b0316836001600160a01b031603610db95760405162461bcd60e51b815260206004820152601960248201527f4552433732313a20617070726f766520746f2063616c6c65720000000000000060448201526064016104ca565b6001600160a01b03838116600081815260056020908152604080832094871680845294825291829020805460ff191686151590811790915591519182527f17307eab39ab6107e8899845ad3d59bd9653f200f220920489ca2b5937696c31910160405180910390a3505050565b610e31848484610af0565b610e3d848484846110d0565b6108e55760405162461bcd60e51b81526004016104ca90611eb6565b6060610e64826109a2565b60008281526006602052604081208054610e7d90611dab565b80601f0160208091040260200160405190810160405280929190818152602001828054610ea990611dab565b8015610ef65780601f10610ecb57610100808354040283529160200191610ef6565b820191906000526020600020905b815481529060010190602001808311610ed957829003601f168201915b505050505090506000610f1460408051602081019091526000815290565b90508051600003610f26575092915050565b815115610f58578082604051602001610f40929190611f08565b60405160208183030381529060405292505050919050565b610950846111d1565b6106d6828260405180602001604052806000815250611245565b6000828152600260205260409020546001600160a01b0316610ff65760405162461bcd60e51b815260206004820152602e60248201527f45524337323155524953746f726167653a2055524920736574206f66206e6f6e60448201526d32bc34b9ba32b73a103a37b5b2b760911b60648201526084016104ca565b600082815260066020526040902061100e8282611f85565b506040518281527ff8e1a15aba9398e019f0b49df1a4fde98ee17ae345cb5f6b5e2c27f5033e8ce79060200160405180910390a15050565b60006001600160e01b0319821663780e9d6360e01b1480610397575061039782611278565b6108e58484848461129d565b611081828261086e565b6106d65761108e816113d1565b6110998360206113e3565b6040516020016110aa929190612045565b60408051601f198184030181529082905262461bcd60e51b82526104ca91600401611ae6565b60006001600160a01b0384163b156111c657604051630a85bd0160e11b81526001600160a01b0385169063150b7a02906111149033908990889088906004016120ba565b6020604051808303816000875af192505050801561114f575060408051601f3d908101601f1916820190925261114c918101906120f7565b60015b6111ac573d80801561117d576040519150601f19603f3d011682016040523d82523d6000602084013e611182565b606091505b5080516000036111a45760405162461bcd60e51b81526004016104ca90611eb6565b805181602001fd5b6001600160e01b031916630a85bd0160e11b149050610950565b506001949350505050565b60606111dc826109a2565b60006111f360408051602081019091526000815290565b90506000815111611213576040518060200160405280600081525061123e565b8061121d8461157f565b60405160200161122e929190611f08565b6040516020818303038152906040525b9392505050565b61124f8383611612565b61125c60008484846110d0565b61056b5760405162461bcd60e51b81526004016104ca90611eb6565b60006001600160e01b03198216632483248360e11b14806103975750610397826117ab565b600181111561130c5760405162461bcd60e51b815260206004820152603560248201527f455243373231456e756d657261626c653a20636f6e7365637574697665207472604482015274185b9cd9995c9cc81b9bdd081cdd5c1c1bdc9d1959605a1b60648201526084016104ca565b816001600160a01b0385166113685761136381600980546000838152600a60205260408120829055600182018355919091527f6e1540171b6c0c960b71a7020d9f60077f6af931a8bbf590da0223dacf75c7af0155565b61138b565b836001600160a01b0316856001600160a01b03161461138b5761138b85826117fb565b6001600160a01b0384166113a7576113a281611898565b6113ca565b846001600160a01b0316846001600160a01b0316146113ca576113ca8482611947565b5050505050565b60606103976001600160a01b03831660145b606060006113f2836002612114565b6113fd906002611e5e565b67ffffffffffffffff81111561141557611415611c17565b6040519080825280601f01601f19166020018201604052801561143f576020820181803683370190505b509050600360fc1b8160008151811061145a5761145a611e32565b60200101906001600160f81b031916908160001a905350600f60fb1b8160018151811061148957611489611e32565b60200101906001600160f81b031916908160001a90535060006114ad846002612114565b6114b8906001611e5e565b90505b6001811115611530576f181899199a1a9b1b9c1cb0b131b232b360811b85600f16601081106114ec576114ec611e32565b1a60f81b82828151811061150257611502611e32565b60200101906001600160f81b031916908160001a90535060049490941c936115298161212b565b90506114bb565b50831561123e5760405162461bcd60e51b815260206004820181905260248201527f537472696e67733a20686578206c656e67746820696e73756666696369656e7460448201526064016104ca565b6060600061158c8361198b565b600101905060008167ffffffffffffffff8111156115ac576115ac611c17565b6040519080825280601f01601f1916602001820160405280156115d6576020820181803683370190505b5090508181016020015b600019016f181899199a1a9b1b9c1cb0b131b232b360811b600a86061a8153600a85049450846115e057509392505050565b6001600160a01b0382166116685760405162461bcd60e51b815260206004820181905260248201527f4552433732313a206d696e7420746f20746865207a65726f206164647265737360448201526064016104ca565b6000818152600260205260409020546001600160a01b0316156116cd5760405162461bcd60e51b815260206004820152601c60248201527f4552433732313a20746f6b656e20616c7265616479206d696e7465640000000060448201526064016104ca565b6116db60008383600161106b565b6000818152600260205260409020546001600160a01b0316156117405760405162461bcd60e51b815260206004820152601c60248201527f4552433732313a20746f6b656e20616c7265616479206d696e7465640000000060448201526064016104ca565b6001600160a01b038216600081815260036020908152604080832080546001019055848352600290915280822080546001600160a01b0319168417905551839291907fddf252ad1be2c89b69c2b068fc378daa952ba7f163c4a11628f55a4df523b3ef908290a45050565b60006001600160e01b031982166380ac58cd60e01b14806117dc57506001600160e01b03198216635b5e139f60e01b145b8061039757506301ffc9a760e01b6001600160e01b0319831614610397565b60006001611808846107e8565b6118129190612142565b600083815260086020526040902054909150808214611865576001600160a01b03841660009081526007602090815260408083208584528252808320548484528184208190558352600890915290208190555b5060009182526008602090815260408084208490556001600160a01b039094168352600781528383209183525290812055565b6009546000906118aa90600190612142565b6000838152600a6020526040812054600980549394509092849081106118d2576118d2611e32565b9060005260206000200154905080600983815481106118f3576118f3611e32565b6000918252602080832090910192909255828152600a9091526040808220849055858252812055600980548061192b5761192b612155565b6001900381819060005260206000200160009055905550505050565b6000611952836107e8565b6001600160a01b039093166000908152600760209081526040808320868452825280832085905593825260089052919091209190915550565b60008072184f03e93ff9f4daa797ed6e38ed64bf6a1f0160401b83106119ca5772184f03e93ff9f4daa797ed6e38ed64bf6a1f0160401b830492506040015b6d04ee2d6d415b85acef810000000083106119f6576d04ee2d6d415b85acef8100000000830492506020015b662386f26fc100008310611a1457662386f26fc10000830492506010015b6305f5e1008310611a2c576305f5e100830492506008015b6127108310611a4057612710830492506004015b60648310611a52576064830492506002015b600a83106103975760010192915050565b6001600160e01b031981168114610a0157600080fd5b600060208284031215611a8b57600080fd5b813561123e81611a63565b60005b83811015611ab1578181015183820152602001611a99565b50506000910152565b60008151808452611ad2816020860160208601611a96565b601f01601f19169290920160200192915050565b60208152600061123e6020830184611aba565b600060208284031215611b0b57600080fd5b5035919050565b80356001600160a01b0381168114611b2957600080fd5b919050565b60008060408385031215611b4157600080fd5b611b4a83611b12565b946020939093013593505050565b600080600060608486031215611b6d57600080fd5b611b7684611b12565b9250611b8460208501611b12565b9150604084013590509250925092565b60008060408385031215611ba757600080fd5b82359150611bb760208401611b12565b90509250929050565b600060208284031215611bd257600080fd5b61123e82611b12565b60008060408385031215611bee57600080fd5b611bf783611b12565b915060208301358015158114611c0c57600080fd5b809150509250929050565b634e487b7160e01b600052604160045260246000fd5b600067ffffffffffffffff80841115611c4857611c48611c17565b604051601f8501601f19908116603f01168101908282118183101715611c7057611c70611c17565b81604052809350858152868686011115611c8957600080fd5b858560208301376000602087830101525050509392505050565b60008060008060808587031215611cb957600080fd5b611cc285611b12565b9350611cd060208601611b12565b925060408501359150606085013567ffffffffffffffff811115611cf357600080fd5b8501601f81018713611d0457600080fd5b611d1387823560208401611c2d565b91505092959194509250565b60008060408385031215611d3257600080fd5b611d3b83611b12565b9150602083013567ffffffffffffffff811115611d5757600080fd5b8301601f81018513611d6857600080fd5b611d7785823560208401611c2d565b9150509250929050565b60008060408385031215611d9457600080fd5b611d9d83611b12565b9150611bb760208401611b12565b600181811c90821680611dbf57607f821691505b602082108103611ddf57634e487b7160e01b600052602260045260246000fd5b50919050565b6020808252602d908201527f4552433732313a2063616c6c6572206973206e6f7420746f6b656e206f776e6560408201526c1c881bdc88185c1c1c9bdd9959609a1b606082015260800190565b634e487b7160e01b600052603260045260246000fd5b634e487b7160e01b600052601160045260246000fd5b8082018082111561039757610397611e48565b60208082526025908201527f4552433732313a207472616e736665722066726f6d20696e636f72726563742060408201526437bbb732b960d91b606082015260800190565b60208082526032908201527f4552433732313a207472616e7366657220746f206e6f6e20455243373231526560408201527131b2b4bb32b91034b6b83632b6b2b73a32b960711b606082015260800190565b60008351611f1a818460208801611a96565b835190830190611f2e818360208801611a96565b01949350505050565b601f82111561056b57600081815260208120601f850160051c81016020861015611f5e5750805b601f850160051c820191505b81811015611f7d57828155600101611f6a565b505050505050565b815167ffffffffffffffff811115611f9f57611f9f611c17565b611fb381611fad8454611dab565b84611f37565b602080601f831160018114611fe85760008415611fd05750858301515b600019600386901b1c1916600185901b178555611f7d565b600085815260208120601f198616915b8281101561201757888601518255948401946001909101908401611ff8565b50858210156120355787850151600019600388901b60f8161c191681555b5050505050600190811b01905550565b7f416363657373436f6e74726f6c3a206163636f756e742000000000000000000081526000835161207d816017850160208801611a96565b7001034b99036b4b9b9b4b733903937b6329607d1b60179184019182015283516120ae816028840160208801611a96565b01602801949350505050565b6001600160a01b03858116825284166020820152604081018390526080606082018190526000906120ed90830184611aba565b9695505050505050565b60006020828403121561210957600080fd5b815161123e81611a63565b808202811582820484141761039757610397611e48565b60008161213a5761213a611e48565b506000190190565b8181038181111561039757610397611e48565b634e487b7160e01b600052603160045260246000fdfea2646970667358221220bed9392936a64354523c4c1538bc15ce84cd6c372eb352111fd9a759df88235164736f6c63430008130033",
  "linkReferences": {},
  "deployedLinkReferences": {}
}